:020000040000FA
:100000000128831603138801831603130614831231
:1000100003138801831203138601BC200330A00060
:100020005620932084209320A00B10285620962041
:100030008420F4108030AC204E3081207530812037
:100040006D308120623081206530812072308120C6
:100050002030812031308120F410C030AC200F30AE
:10006000AC20A101A201C030A300A20123085320AB
:100070002108303E81208A20061C4C28A20A220832
:10008000043C031D36280C30AC20A30AA30AC83058
:100090002302031C35289B28A201A10A21080A3C3F
:1000A000031CA1013628F410AC200800F4108030A5
:1000B000AC2057308120653081206C308120633046
:1000C00081206F3081206D3081206530812020308B
:1000D0008120743081206F308120F410C030AC203A
:1000E0004430812069308120763081206930812040
:1000F00073308120693081206F3081206E30812003
:100100000800F414AC200800F4100130AC200530D5
:10011000A22008003E30A2203F30A2203F30A22083
:100120003E30A22008008A208A20080093209320D5
:100130009320932008009B28F930F0000000F00B7A
:100140009E280800F1009C20F10BA3280800081548
:100150009C2008119C200800F500F0398800F41854
:100160008814A7209C20F50E7508F0398800F41833
:100170008814A7209C2008006430A220F030F400EE
:1001800030308800A7200530A220A7209C20A7207F
:100190000812A7202830AC200830AC200130AC2059
:0E01A0000630AC208030AC200C30AC200800C3
:02400E00313748
:00000001FF
