:020000040000FA
:1000000001288316031386128312031386128316A4
:100010000313880183160313061483120313880144
:10002000BA23D8010230A3007022F430A023992211
:10003000F430A023A30B1428702285238C23CF0136
:10004000D401C3200130CF00D401C320BC205F23E2
:1000500060182D20A622E830A0239922262383129F
:1000600003138616332883120313D801DB010130F2
:10007000DC00DD01DE01DF014420831203135D1883
:100080001E280A30A0233C28831203135F0803199B
:100090004A28DF038312031306185A285B187028B6
:1000A0005B14DE0A3230DF005E08023A031D70285E
:1000B0005D1408005B1C67285B105E08013A031D95
:1000C00070285F08031D70287120DE0170285F080A
:1000D000031D70285E08013A031D6F287120DE01A0
:1000E0000800D80A5808033A031D7728D801580891
:1000F000003A031984285808013A03198628580839
:10010000023A0319A128080026230800992280300A
:100110009E224E22C0309E22283084000630D2001B
:100120000008A222840AD20B90282E30A2222E3060
:1001300084000630D2000008A222840AD20B9B2839
:100140000800992280309E225F22C0309E223430E7
:1001500084000630D2000008A222840AD20BAB2809
:100160002E30A2223A3084000630D2000008A222AB
:10017000840AD20BB62808009922C0309E223D3056
:10018000A222502108004F18CA282830D0002E3053
:10019000D100CE283430D0003A30D1000C30D2001B
:1001A0005008840030308000840AD20BD228992273
:1001B00080309E224F185F224F1C4E224F18502134
:1001C0004F1899224F1CE528E82880309E224E22A5
:1001D000B721C301C401C601C801CE0143080D3CCB
:1001E00003194F294308A700C030A7074308063A60
:1001F000031DFD28A70AC30AEE2827089E226721AF
:100200004308063C031C08295008430784000F29B3
:100210004308D3000730D302510853078400430832
:10022000003A031D2129441821292408C500A221D0
:1002300044144614B721CE21481847290130C30081
:10024000EE284308073A031D41292408C500450844
:10025000303E800051088400840A0530D2004508F1
:10026000303E8000840AD20B2F29B721F921481C87
:100270003D294F1C402954144F290830C300EE2853
:100280004F292408303E8000C30AB721EE2883128C
:100290000313061C47290730C300C801EE280800D5
:1002A0006430D3000A30A023D30B5229080043083E
:1002B000D300063053020318612950085307840005
:1002C00008000730D3025108530784000800C0011A
:1002D000A1010130A50057210008C10027089E2276
:1002E0004108A22227089E220F309E224108A60024
:1002F00030302602A400031CA401C7000A30A0234A
:10030000A10A64302102031C862908004014061843
:100310008D29251CA129A5017E2925187E290130BA
:10032000A500A40A0A302402031C9729A401270867
:100330009E222408303EA22227089E22A1014014BA
:100340007E297E290630D200500884004508303EC0
:100350008000840AD20BA6290630D20051088400FE
:100360004508303E8000840AD20BB0290800C03016
:100370009E22500884000630D2000008A222840A7F
:10038000D20BBD292E30A222510884000630D200A3
:100390000008A222840AD20BC82908002708A60058
:1003A00080309E225330A2226B30A2226930A222DA
:1003B0007030A2223F30A2222030A2225B30A22243
:1003C0005930A2225D30A2222A2283120313061C76
:1003D000E52980309E221030D2002030A222D20B9C
:1003E000ED2980309E224F1C4E222608A7009E2217
:1003F00008002708A60080309E225330A2226B30CE
:10040000A2226930A2227030A2222030A2227230B1
:10041000A2226530A2227330A2227430A2223F3081
:10042000A2222030A2225B30A2225930A2225D30CB
:10043000A2222A2280309E221030D2002030A22216
:10044000D20B1E2A80309E224F1C4E222608A70067
:100450009E220800CA01C901C830CB00CD01CC01E1
:100460000A30A023CB0B352A08000618442A4D1861
:10047000302A4D14CA0A3230CC004A08023A031D11
:10048000302A4814491408004D1C302A4D104A08DF
:10049000013A031D302ACC0B302A08004E30A2222C
:1004A0007530A2226D30A2226230A2226530A222D3
:1004B0007230A2222030A2223130A22208004E3017
:1004C000A2227530A2226D30A2226230A2226530B3
:1004D000A2227230A2222030A2223230A2220800B0
:1004E00080309E225730A2226530A2226C30A22298
:1004F0006330A2226F30A2226D30A2226530A22288
:100500002030A2227430A2226F30A222C0309E225C
:100510004430A2226930A2227630A2226930A2227F
:100520007330A2226930A2226F30A2226E30A22242
:10053000080001309E221430A0230800F500F410BA
:10054000AA230800F500F414AA2308008312031359
:10055000061AA82A0C30F10028308400BC22D322CD
:100560000C30F10034308400BC22D3226430A0234C
:100570000C30F100F92208000408D300A0308400F8
:100580007108D2000408F400530884000008F20047
:100590007408840072088000D30A840AD20BC22A2D
:1005A000530884000800A03084007108D2000008BD
:1005B000F200DE22840AD20BD72A08008316031326
:1005C00087018312031372088700F1228312031339
:1005D0008615F122061EEA2A8611061AED2A7B23C9
:1005E00008002130A200000000000000A20BF32A46
:1005F000080083160313FF3087008312031383134D
:10060000C43084007108D200122383137208800062
:10061000840AD20B042B831603138701831203135E
:100620007314080083160313FF308700831203132B
:100630008615061E192B7B23831203130708F2006D
:10064000831203138611061A232B08009922803087
:100650009E225230A2226530A2227330A22275302F
:10066000A2226C30A2227430A222C0309E226018D6
:100670004C2BC43084000630D2000008A222840A29
:10068000D20B3D2B2E30A2220630D2000008A2222F
:10069000840AD20B462B08005530A2226E30A222CB
:1006A0006430A2226530A2226630A2226930A222E2
:1006B0006E30A2226530A2226430A22208006014AB
:1006C000343084000630D2000008303A03196A2B17
:1006D000E0010800840AD20B642B3A308400063013
:1006E000D2000008303A0319772BE0010800840A91
:1006F000D20B712B0800831203130330A2000000F9
:1007000000000000A20B7F2B0800C830D3000A3085
:10071000A023D30B872B080083160313061686111C
:1007200083160313870183120313861183120313A5
:1007300087010800F930F0000000F00B9C2B080046
:10074000F1009A23F10BA12B080008159A23081138
:100750009A230800F500F0398800F4188814A523BE
:100760009A23F50E7508F0398800F4188814A5232B
:100770009A2308006430A023F030F4003030880061
:10078000A5230530A023A5239A23A5230812A5237A
:100790002830AA230830AA230130AA230630AA232E
:0A07A0008030AA230C30AA230800C1
:02400E00723FFF
:00000001FF
