:020000040000FA
:100000000128831603138801831203138801031345
:1000100083128313831603130614861083160313A7
:10002000FF3087008312031386101A205A20AF2056
:1000300080200128031383128313A701A801A901BB
:10004000AA01AB01AC01AD01AE01AF01B001B1013C
:10005000B201D301D401D501D601D701D801E601FF
:10006000E701E801E901EA01EB013F205020831696
:100070000313FF3087008312031386100800343007
:1000800084000C30A2008001840AA20B4328463071
:1000900084000C30A2008001840AA20B4B280800C7
:1000A0008313B43084001830A2008001840AA20BAC
:1000B0005528080083160313FF30870083120313AB
:1000C0008610DA21061862288313B43084001830B1
:1000D000A000722021088000840AA00B6928E42176
:1000E00086100800061C7228E421831203130708F7
:1000F000A10083120313861406187C2886100800BA
:1001000083160313870183120313870183120313DA
:1001100086100C30A000463084000008A1009E200C
:10012000840AA00B8D2883120313870183160313FF
:10013000FF3087008312031386100800061C9E28D8
:100140008316031387018312031321088700E42118
:100150008312031386140618AB28861008000313B5
:100160008312B430A3003430A4001230A6007C21E6
:100170008B210313831283135308AC005408AB0084
:100180005508AA005608A9005708A8005808A70053
:10019000B4300C3EA3003430A4001230A6007C2101
:1001A0008B210313831283135308B2005408B10048
:1001B0005508B0005608AF005708AE005808AD000B
:1001C0002C08D3002B08D4002A08D5002908D60013
:1001D0002808D7002708D800FE20FE205308E60094
:1001E0005408E7005508E8005608E9005708EA00F7
:1001F0005808EB003921BA2110220800031383129A
:1002000083130310D30DD40DD50DD60DD70DD80DF6
:100210005308DF005408E0005508E1005608E200EA
:100220005708E3005808E4000310DF0DE00DE10D6E
:10023000E20DE30DE40D0310DF0DE00DE10DE20D25
:10024000E30DE40D5F08D30760080318013ED407EF
:1002500061080318013ED50762080318013ED6075E
:1002600063080318013ED70764080318013ED80746
:10027000080003138312D301D401D501D601D7019D
:10028000D8013208E6023108031C310AE7023008BF
:10029000031C300AE8022F08031C2F0AE9022E086B
:1002A000031C2E0AEA022D08031C2D0AEB02031C74
:1002B0006529D30A0319D40A0319D50A0319D60AE2
:1002C0000319D70A0319D80A41293208E607310869
:1002D0000318310AE70730080318300AE8072F0827
:1002E00003182F0AE9072E0803182E0AEA072D081B
:1002F00003182D0AEB070800831323088400000865
:10030000A100A30A83132408840021088000A40A02
:10031000A60B7C2908000308D10003138312831362
:10032000D301D401D501D601D701D80134308400DE
:100330000C30D00000080F39E500FE206508D30717
:1003400003010318800AD40703010318800AD507A4
:1003500003010318800AD60703010318800AD70790
:1003600003010318800AD807840AD00B9A29510880
:10037000830008000308D100831203133430840083
:100380000C30A20030308000840AA20BC2290C304D
:10039000D00034300B3ED200FC21303EE500520844
:1003A000840065088000D203D003031DCC295108C6
:1003B00083000800C830A200FA30A1000000A10BA1
:1003C000DE29A20BDC2908002130A2000000000079
:1003D000A20BE6290800DE015C08031DF3290A30A0
:1003E0005D02031CFA290A30DD020318F829DC0338
:1003F000DE0AEC295D080800D9015830DA00063021
:10040000DB005A0884000008DD005908DC00EB21FD
:10041000D9005E088000DA03DB0B012A59080800C6
:1004200083120313463084000C30A2003030800069
:10043000840AA20B162A3830A3004630A4000830E4
:10044000A200230884000008A500240884002508D1
:0C0450008000A30AA40AA20B212A0800C5
:02400E00323F3F
:00000001FF
